{
  "contractName": "CustomNFT",
  "abi": [
    {
      "inputs": [
        {
          "internalType": "string",
          "name": "name",
          "type": "string"
        },
        {
          "internalType": "string",
          "name": "symbol",
          "type": "string"
        }
      ],
      "stateMutability": "nonpayable",
      "type": "constructor"
    },
    {
      "anonymous": false,
      "inputs": [
        {
          "indexed": true,
          "internalType": "address",
          "name": "owner",
          "type": "address"
        },
        {
          "indexed": true,
          "internalType": "address",
          "name": "approved",
          "type": "address"
        },
        {
          "indexed": true,
          "internalType": "uint256",
          "name": "tokenId",
          "type": "uint256"
        }
      ],
      "name": "Approval",
      "type": "event"
    },
    {
      "anonymous": false,
      "inputs": [
        {
          "indexed": true,
          "internalType": "address",
          "name": "owner",
          "type": "address"
        },
        {
          "indexed": true,
          "internalType": "address",
          "name": "operator",
          "type": "address"
        },
        {
          "indexed": false,
          "internalType": "bool",
          "name": "approved",
          "type": "bool"
        }
      ],
      "name": "ApprovalForAll",
      "type": "event"
    },
    {
      "anonymous": false,
      "inputs": [
        {
          "indexed": true,
          "internalType": "address",
          "name": "previousOwner",
          "type": "address"
        },
        {
          "indexed": true,
          "internalType": "address",
          "name": "newOwner",
          "type": "address"
        }
      ],
      "name": "OwnershipTransferred",
      "type": "event"
    },
    {
      "anonymous": false,
      "inputs": [
        {
          "indexed": true,
          "internalType": "address",
          "name": "from",
          "type": "address"
        },
        {
          "indexed": true,
          "internalType": "address",
          "name": "to",
          "type": "address"
        },
        {
          "indexed": true,
          "internalType": "uint256",
          "name": "tokenId",
          "type": "uint256"
        }
      ],
      "name": "Transfer",
      "type": "event"
    },
    {
      "inputs": [
        {
          "internalType": "address",
          "name": "to",
          "type": "address"
        },
        {
          "internalType": "uint256",
          "name": "tokenId",
          "type": "uint256"
        }
      ],
      "name": "approve",
      "outputs": [],
      "stateMutability": "nonpayable",
      "type": "function"
    },
    {
      "inputs": [
        {
          "internalType": "address",
          "name": "owner",
          "type": "address"
        }
      ],
      "name": "balanceOf",
      "outputs": [
        {
          "internalType": "uint256",
          "name": "",
          "type": "uint256"
        }
      ],
      "stateMutability": "view",
      "type": "function",
      "constant": true
    },
    {
      "inputs": [
        {
          "internalType": "uint256",
          "name": "tokenId",
          "type": "uint256"
        }
      ],
      "name": "getApproved",
      "outputs": [
        {
          "internalType": "address",
          "name": "",
          "type": "address"
        }
      ],
      "stateMutability": "view",
      "type": "function",
      "constant": true
    },
    {
      "inputs": [
        {
          "internalType": "address",
          "name": "owner",
          "type": "address"
        },
        {
          "internalType": "address",
          "name": "operator",
          "type": "address"
        }
      ],
      "name": "isApprovedForAll",
      "outputs": [
        {
          "internalType": "bool",
          "name": "",
          "type": "bool"
        }
      ],
      "stateMutability": "view",
      "type": "function",
      "constant": true
    },
    {
      "inputs": [],
      "name": "name",
      "outputs": [
        {
          "internalType": "string",
          "name": "",
          "type": "string"
        }
      ],
      "stateMutability": "view",
      "type": "function",
      "constant": true
    },
    {
      "inputs": [],
      "name": "owner",
      "outputs": [
        {
          "internalType": "address",
          "name": "",
          "type": "address"
        }
      ],
      "stateMutability": "view",
      "type": "function",
      "constant": true
    },
    {
      "inputs": [
        {
          "internalType": "uint256",
          "name": "tokenId",
          "type": "uint256"
        }
      ],
      "name": "ownerOf",
      "outputs": [
        {
          "internalType": "address",
          "name": "",
          "type": "address"
        }
      ],
      "stateMutability": "view",
      "type": "function",
      "constant": true
    },
    {
      "inputs": [],
      "name": "renounceOwnership",
      "outputs": [],
      "stateMutability": "nonpayable",
      "type": "function"
    },
    {
      "inputs": [
        {
          "internalType": "address",
          "name": "from",
          "type": "address"
        },
        {
          "internalType": "address",
          "name": "to",
          "type": "address"
        },
        {
          "internalType": "uint256",
          "name": "tokenId",
          "type": "uint256"
        }
      ],
      "name": "safeTransferFrom",
      "outputs": [],
      "stateMutability": "nonpayable",
      "type": "function"
    },
    {
      "inputs": [
        {
          "internalType": "address",
          "name": "from",
          "type": "address"
        },
        {
          "internalType": "address",
          "name": "to",
          "type": "address"
        },
        {
          "internalType": "uint256",
          "name": "tokenId",
          "type": "uint256"
        },
        {
          "internalType": "bytes",
          "name": "_data",
          "type": "bytes"
        }
      ],
      "name": "safeTransferFrom",
      "outputs": [],
      "stateMutability": "nonpayable",
      "type": "function"
    },
    {
      "inputs": [
        {
          "internalType": "address",
          "name": "operator",
          "type": "address"
        },
        {
          "internalType": "bool",
          "name": "approved",
          "type": "bool"
        }
      ],
      "name": "setApprovalForAll",
      "outputs": [],
      "stateMutability": "nonpayable",
      "type": "function"
    },
    {
      "inputs": [
        {
          "internalType": "bytes4",
          "name": "interfaceId",
          "type": "bytes4"
        }
      ],
      "name": "supportsInterface",
      "outputs": [
        {
          "internalType": "bool",
          "name": "",
          "type": "bool"
        }
      ],
      "stateMutability": "view",
      "type": "function",
      "constant": true
    },
    {
      "inputs": [],
      "name": "symbol",
      "outputs": [
        {
          "internalType": "string",
          "name": "",
          "type": "string"
        }
      ],
      "stateMutability": "view",
      "type": "function",
      "constant": true
    },
    {
      "inputs": [
        {
          "internalType": "uint256",
          "name": "tokenId",
          "type": "uint256"
        }
      ],
      "name": "tokenURI",
      "outputs": [
        {
          "internalType": "string",
          "name": "",
          "type": "string"
        }
      ],
      "stateMutability": "view",
      "type": "function",
      "constant": true
    },
    {
      "inputs": [
        {
          "internalType": "address",
          "name": "from",
          "type": "address"
        },
        {
          "internalType": "address",
          "name": "to",
          "type": "address"
        },
        {
          "internalType": "uint256",
          "name": "tokenId",
          "type": "uint256"
        }
      ],
      "name": "transferFrom",
      "outputs": [],
      "stateMutability": "nonpayable",
      "type": "function"
    },
    {
      "inputs": [
        {
          "internalType": "address",
          "name": "newOwner",
          "type": "address"
        }
      ],
      "name": "transferOwnership",
      "outputs": [],
      "stateMutability": "nonpayable",
      "type": "function"
    },
    {
      "inputs": [
        {
          "internalType": "string",
          "name": "_tokenURI",
          "type": "string"
        }
      ],
      "name": "mintToken",
      "outputs": [],
      "stateMutability": "payable",
      "type": "function",
      "payable": true
    }
  ],
  "bytecode": "0x60806040523480156200001157600080fd5b506040516200361b3803806200361b8339818101604052810190620000379190620003f8565b8181816000908051906020019062000051929190620001ab565b5080600190805190602001906200006a929190620001ab565b5050506200009f6200008a620000c7640100000000026401000000009004565b620000cf640100000000026401000000009004565b620000bf6008620001956401000000000262000e89176401000000009004565b5050620004e2565b600033905090565b6000600760009054906101000a900473ffffffffffffffffffffffffffffffffffffffff16905081600760006101000a81548173ffffffffffffffffffffffffffffffffffffffff021916908373ffffffffffffffffffffffffffffffffffffffff1602179055508173ffffffffffffffffffffffffffffffffffffffff168173ffffffffffffffffffffffffffffffffffffffff167f8be0079c531659141344cd1fd0a4f28419497f9722a3daafe3b4186f6b6457e060405160405180910390a35050565b6001816000016000828254019250508190555050565b828054620001b990620004ac565b90600052602060002090601f016020900481019282620001dd576000855562000229565b82601f10620001f857805160ff191683800117855562000229565b8280016001018555821562000229579182015b82811115620002285782518255916020019190600101906200020b565b5b5090506200023891906200023c565b5090565b5b80821115620002575760008160009055506001016200023d565b5090565b6000604051905090565b600080fd5b600080fd5b600080fd5b600080fd5b6000601f19601f8301169050919050565b7f4e487b7100000000000000000000000000000000000000000000000000000000600052604160045260246000fd5b620002c48262000279565b810181811067ffffffffffffffff82111715620002e657620002e56200028a565b5b80604052505050565b6000620002fb6200025b565b9050620003098282620002b9565b919050565b600067ffffffffffffffff8211156200032c576200032b6200028a565b5b620003378262000279565b9050602081019050919050565b60005b838110156200036457808201518184015260208101905062000347565b8381111562000374576000848401525b50505050565b6000620003916200038b846200030e565b620002ef565b905082815260208101848484011115620003b057620003af62000274565b5b620003bd84828562000344565b509392505050565b600082601f830112620003dd57620003dc6200026f565b5b8151620003ef8482602086016200037a565b91505092915050565b6000806040838503121562000412576200041162000265565b5b600083015167ffffffffffffffff8111156200043357620004326200026a565b5b6200044185828601620003c5565b925050602083015167ffffffffffffffff8111156200046557620004646200026a565b5b6200047385828601620003c5565b9150509250929050565b7f4e487b7100000000000000000000000000000000000000000000000000000000600052602260045260246000fd5b60006002820490506001821680620004c557607f821691505b60208210811415620004dc57620004db6200047d565b5b50919050565b61312980620004f26000396000f3fe60806040526004361061012b576000357c01000000000000000000000000000000000000000000000000000000009004806370a08231116100c2578063a22cb46511610091578063c87b56dd11610076578063c87b56dd146103a5578063e985e9c5146103e2578063f2fde38b1461041f5761012b565b8063a22cb46514610353578063b88d4fde1461037c5761012b565b806370a08231146102a9578063715018a6146102e65780638da5cb5b146102fd57806395d89b41146103285761012b565b806323b872dd116100fe57806323b872dd146101fe57806333eba49a1461022757806342842e0e146102435780636352211e1461026c5761012b565b806301ffc9a71461013057806306fdde031461016d578063081812fc14610198578063095ea7b3146101d5575b600080fd5b34801561013c57600080fd5b5061015760048036038101906101529190611da0565b610448565b6040516101649190611de8565b60405180910390f35b34801561017957600080fd5b5061018261052a565b60405161018f9190611e9c565b60405180910390f35b3480156101a457600080fd5b506101bf60048036038101906101ba9190611ef4565b6105bc565b6040516101cc9190611f62565b60405180910390f35b3480156101e157600080fd5b506101fc60048036038101906101f79190611fa9565b610641565b005b34801561020a57600080fd5b5061022560048036038101906102209190611fe9565b610759565b005b610241600480360381019061023c9190612171565b6107b9565b005b34801561024f57600080fd5b5061026a60048036038101906102659190611fe9565b610865565b005b34801561027857600080fd5b50610293600480360381019061028e9190611ef4565b610885565b6040516102a09190611f62565b60405180910390f35b3480156102b557600080fd5b506102d060048036038101906102cb91906121ba565b610937565b6040516102dd91906121f6565b60405180910390f35b3480156102f257600080fd5b506102fb6109ef565b005b34801561030957600080fd5b50610312610a77565b60405161031f9190611f62565b60405180910390f35b34801561033457600080fd5b5061033d610aa1565b60405161034a9190611e9c565b60405180910390f35b34801561035f57600080fd5b5061037a6004803603810190610375919061223d565b610b33565b005b34801561038857600080fd5b506103a3600480360381019061039e919061231e565b610b49565b005b3480156103b157600080fd5b506103cc60048036038101906103c79190611ef4565b610bab565b6040516103d99190611e9c565b60405180910390f35b3480156103ee57600080fd5b50610409600480360381019061040491906123a1565b610cfd565b6040516104169190611de8565b60405180910390f35b34801561042b57600080fd5b50610446600480360381019061044191906121ba565b610d91565b005b60007f80ac58cd000000000000000000000000000000000000000000000000000000007bffffffffffffffffffffffffffffffffffffffffffffffffffffffff1916827bffffffffffffffffffffffffffffffffffffffffffffffffffffffff1916148061051357507f5b5e139f000000000000000000000000000000000000000000000000000000007bffffffffffffffffffffffffffffffffffffffffffffffffffffffff1916827bffffffffffffffffffffffffffffffffffffffffffffffffffffffff1916145b80610523575061052282610e9f565b5b9050919050565b60606000805461053990612410565b80601f016020809104026020016040519081016040528092919081815260200182805461056590612410565b80156105b25780601f10610587576101008083540402835291602001916105b2565b820191906000526020600020905b81548152906001019060200180831161059557829003601f168201915b5050505050905090565b60006105c782610f09565b610606576040517f08c379a00000000000000000000000000000000000000000000000000000000081526004016105fd906124b4565b60405180910390fd5b6004600083815260200190815260200160002060009054906101000a900473ffffffffffffffffffffffffffffffffffffffff169050919050565b600061064c82610885565b90508073ffffffffffffffffffffffffffffffffffffffff168373ffffffffffffffffffffffffffffffffffffffff1614156106bd576040517f08c379a00000000000000000000000000000000000000000000000000000000081526004016106b490612546565b60405180910390fd5b8073ffffffffffffffffffffffffffffffffffffffff166106dc610f75565b73ffffffffffffffffffffffffffffffffffffffff16148061070b575061070a81610705610f75565b610cfd565b5b61074a576040517f08c379a0000000000000000000000000000000000000000000000000000000008152600401610741906125d8565b60405180910390fd5b6107548383610f7d565b505050565b61076a610764610f75565b82611036565b6107a9576040517f08c379a00000000000000000000000000000000000000000000000000000000081526004016107a09061266a565b60405180910390fd5b6107b4838383611114565b505050565b6107c1610f75565b73ffffffffffffffffffffffffffffffffffffffff166107df610a77565b73ffffffffffffffffffffffffffffffffffffffff1614610835576040517f08c379a000000000000000000000000000000000000000000000000000000000815260040161082c906126d6565b60405180910390fd5b6000610841600861137b565b905061084d6008610e89565b6108573382611389565b6108618183611563565b5050565b61088083838360405180602001604052806000815250610b49565b505050565b6000806002600084815260200190815260200160002060009054906101000a900473ffffffffffffffffffffffffffffffffffffffff169050600073ffffffffffffffffffffffffffffffffffffffff168173ffffffffffffffffffffffffffffffffffffffff16141561092e576040517f08c379a000000000000000000000000000000000000000000000000000000000815260040161092590612768565b60405180910390fd5b80915050919050565b60008073ffffffffffffffffffffffffffffffffffffffff168273ffffffffffffffffffffffffffffffffffffffff1614156109a8576040517f08c379a000000000000000000000000000000000000000000000000000000000815260040161099f906127fa565b60405180910390fd5b600360008373ffffffffffffffffffffffffffffffffffffffff1673ffffffffffffffffffffffffffffffffffffffff168152602001908152602001600020549050919050565b6109f7610f75565b73ffffffffffffffffffffffffffffffffffffffff16610a15610a77565b73ffffffffffffffffffffffffffffffffffffffff1614610a6b576040517f08c379a0000000000000000000000000000000000000000000000000000000008152600401610a62906126d6565b60405180910390fd5b610a7560006115d7565b565b6000600760009054906101000a900473ffffffffffffffffffffffffffffffffffffffff16905090565b606060018054610ab090612410565b80601f0160208091040260200160405190810160405280929190818152602001828054610adc90612410565b8015610b295780601f10610afe57610100808354040283529160200191610b29565b820191906000526020600020905b815481529060010190602001808311610b0c57829003601f168201915b5050505050905090565b610b45610b3e610f75565b838361169d565b5050565b610b5a610b54610f75565b83611036565b610b99576040517f08c379a0000000000000000000000000000000000000000000000000000000008152600401610b909061266a565b60405180910390fd5b610ba58484848461180a565b50505050565b6060610bb682610f09565b610bf5576040517f08c379a0000000000000000000000000000000000000000000000000000000008152600401610bec9061288c565b60405180910390fd5b6000600660008481526020019081526020016000208054610c1590612410565b80601f0160208091040260200160405190810160405280929190818152602001828054610c4190612410565b8015610c8e5780601f10610c6357610100808354040283529160200191610c8e565b820191906000526020600020905b815481529060010190602001808311610c7157829003601f168201915b505050505090506000610c9f611866565b9050600081511415610cb5578192505050610cf8565b600082511115610cea578082604051602001610cd29291906128e8565b60405160208183030381529060405292505050610cf8565b610cf38461187d565b925050505b919050565b6000600560008473ffffffffffffffffffffffffffffffffffffffff1673ffffffffffffffffffffffffffffffffffffffff16815260200190815260200160002060008373ffffffffffffffffffffffffffffffffffffffff1673ffffffffffffffffffffffffffffffffffffffff16815260200190815260200160002060009054906101000a900460ff16905092915050565b610d99610f75565b73ffffffffffffffffffffffffffffffffffffffff16610db7610a77565b73ffffffffffffffffffffffffffffffffffffffff1614610e0d576040517f08c379a0000000000000000000000000000000000000000000000000000000008152600401610e04906126d6565b60405180910390fd5b600073ffffffffffffffffffffffffffffffffffffffff168173ffffffffffffffffffffffffffffffffffffffff161415610e7d576040517f08c379a0000000000000000000000000000000000000000000000000000000008152600401610e749061297e565b60405180910390fd5b610e86816115d7565b50565b6001816000016000828254019250508190555050565b60007f01ffc9a7000000000000000000000000000000000000000000000000000000007bffffffffffffffffffffffffffffffffffffffffffffffffffffffff1916827bffffffffffffffffffffffffffffffffffffffffffffffffffffffff1916149050919050565b60008073ffffffffffffffffffffffffffffffffffffffff166002600084815260200190815260200160002060009054906101000a900473ffffffffffffffffffffffffffffffffffffffff1673ffffffffffffffffffffffffffffffffffffffff1614159050919050565b600033905090565b816004600083815260200190815260200160002060006101000a81548173ffffffffffffffffffffffffffffffffffffffff021916908373ffffffffffffffffffffffffffffffffffffffff160217905550808273ffffffffffffffffffffffffffffffffffffffff16610ff083610885565b73ffffffffffffffffffffffffffffffffffffffff167f8c5be1e5ebec7d5bd14f71427d1e84f3dd0314c0f7b2291e5b200ac8c7c3b92560405160405180910390a45050565b600061104182610f09565b611080576040517f08c379a000000000000000000000000000000000000000000000000000000000815260040161107790612a10565b60405180910390fd5b600061108b83610885565b90508073ffffffffffffffffffffffffffffffffffffffff168473ffffffffffffffffffffffffffffffffffffffff1614806110fa57508373ffffffffffffffffffffffffffffffffffffffff166110e2846105bc565b73ffffffffffffffffffffffffffffffffffffffff16145b8061110b575061110a8185610cfd565b5b91505092915050565b8273ffffffffffffffffffffffffffffffffffffffff1661113482610885565b73ffffffffffffffffffffffffffffffffffffffff161461118a576040517f08c379a000000000000000000000000000000000000000000000000000000000815260040161118190612aa2565b60405180910390fd5b600073ffffffffffffffffffffffffffffffffffffffff168273ffffffffffffffffffffffffffffffffffffffff1614156111fa576040517f08c379a00000000000000000000000000000000000000000000000000000000081526004016111f190612b34565b60405180910390fd5b611205838383611924565b611210600082610f7d565b6001600360008573ffffffffffffffffffffffffffffffffffffffff1673ffffffffffffffffffffffffffffffffffffffff16815260200190815260200160002060008282546112609190612b83565b925050819055506001600360008473ffffffffffffffffffffffffffffffffffffffff1673ffffffffffffffffffffffffffffffffffffffff16815260200190815260200160002060008282546112b79190612bb7565b92505081905550816002600083815260200190815260200160002060006101000a81548173ffffffffffffffffffffffffffffffffffffffff021916908373ffffffffffffffffffffffffffffffffffffffff160217905550808273ffffffffffffffffffffffffffffffffffffffff168473ffffffffffffffffffffffffffffffffffffffff167fddf252ad1be2c89b69c2b068fc378daa952ba7f163c4a11628f55a4df523b3ef60405160405180910390a4611376838383611929565b505050565b600081600001549050919050565b600073ffffffffffffffffffffffffffffffffffffffff168273ffffffffffffffffffffffffffffffffffffffff1614156113f9576040517f08c379a00000000000000000000000000000000000000000000000000000000081526004016113f090612c59565b60405180910390fd5b61140281610f09565b15611442576040517f08c379a000000000000000000000000000000000000000000000000000000000815260040161143990612cc5565b60405180910390fd5b61144e60008383611924565b6001600360008473ffffffffffffffffffffffffffffffffffffffff1673ffffffffffffffffffffffffffffffffffffffff168152602001908152602001600020600082825461149e9190612bb7565b92505081905550816002600083815260200190815260200160002060006101000a81548173ffffffffffffffffffffffffffffffffffffffff021916908373ffffffffffffffffffffffffffffffffffffffff160217905550808273ffffffffffffffffffffffffffffffffffffffff16600073ffffffffffffffffffffffffffffffffffffffff167fddf252ad1be2c89b69c2b068fc378daa952ba7f163c4a11628f55a4df523b3ef60405160405180910390a461155f60008383611929565b5050565b61156c82610f09565b6115ab576040517f08c379a00000000000000000000000000000000000000000000000000000000081526004016115a290612d57565b60405180910390fd5b806006600084815260200190815260200160002090805190602001906115d2929190611c91565b505050565b6000600760009054906101000a900473ffffffffffffffffffffffffffffffffffffffff16905081600760006101000a81548173ffffffffffffffffffffffffffffffffffffffff021916908373ffffffffffffffffffffffffffffffffffffffff1602179055508173ffffffffffffffffffffffffffffffffffffffff168173ffffffffffffffffffffffffffffffffffffffff167f8be0079c531659141344cd1fd0a4f28419497f9722a3daafe3b4186f6b6457e060405160405180910390a35050565b8173ffffffffffffffffffffffffffffffffffffffff168373ffffffffffffffffffffffffffffffffffffffff16141561170c576040517f08c379a000000000000000000000000000000000000000000000000000000000815260040161170390612dc3565b60405180910390fd5b80600560008573ffffffffffffffffffffffffffffffffffffffff1673ffffffffffffffffffffffffffffffffffffffff16815260200190815260200160002060008473ffffffffffffffffffffffffffffffffffffffff1673ffffffffffffffffffffffffffffffffffffffff16815260200190815260200160002060006101000a81548160ff0219169083151502179055508173ffffffffffffffffffffffffffffffffffffffff168373ffffffffffffffffffffffffffffffffffffffff167f17307eab39ab6107e8899845ad3d59bd9653f200f220920489ca2b5937696c31836040516117fd9190611de8565b60405180910390a3505050565b611815848484611114565b6118218484848461192e565b611860576040517f08c379a000000000000000000000000000000000000000000000000000000000815260040161185790612e55565b60405180910390fd5b50505050565b606060405180602001604052806000815250905090565b606061188882610f09565b6118c7576040517f08c379a00000000000000000000000000000000000000000000000000000000081526004016118be90612ee7565b60405180910390fd5b60006118d1611866565b905060008151116118f1576040518060200160405280600081525061191c565b806118fb84611aee565b60405160200161190c9291906128e8565b6040516020818303038152906040525b915050919050565b505050565b505050565b600061194f8473ffffffffffffffffffffffffffffffffffffffff16611c6e565b15611ae1578373ffffffffffffffffffffffffffffffffffffffff1663150b7a02611978610f75565b8786866040518563ffffffff167c01000000000000000000000000000000000000000000000000000000000281526004016119b69493929190612f5c565b6020604051808303816000875af19250505080156119f257506040513d601f19601f820116820180604052508101906119ef9190612fbd565b60015b611a75573d8060008114611a22576040519150601f19603f3d011682016040523d82523d6000602084013e611a27565b606091505b50600081511415611a6d576040517f08c379a0000000000000000000000000000000000000000000000000000000008152600401611a6490612e55565b60405180910390fd5b805181602001fd5b63150b7a027c0100000000000000000000000000000000000000000000000000000000027bffffffffffffffffffffffffffffffffffffffffffffffffffffffff1916817bffffffffffffffffffffffffffffffffffffffffffffffffffffffff191614915050611ae6565b600190505b949350505050565b60606000821415611b36576040518060400160405280600181526020017f30000000000000000000000000000000000000000000000000000000000000008152509050611c69565b600082905060005b60008214611b68578080611b5190612fea565b915050600a82611b619190613062565b9150611b3e565b60008167ffffffffffffffff811115611b8457611b83612046565b5b6040519080825280601f01601f191660200182016040528015611bb65781602001600182028036833780820191505090505b5090505b60008514611c6257600182611bcf9190612b83565b9150600a85611bde9190613093565b6030611bea9190612bb7565b7f010000000000000000000000000000000000000000000000000000000000000002818381518110611c1f57611c1e6130c4565b5b60200101907effffffffffffffffffffffffffffffffffffffffffffffffffffffffffffff1916908160001a905350600a85611c5b9190613062565b9450611bba565b8093505050505b919050565b6000808273ffffffffffffffffffffffffffffffffffffffff163b119050919050565b828054611c9d90612410565b90600052602060002090601f016020900481019282611cbf5760008555611d06565b82601f10611cd857805160ff1916838001178555611d06565b82800160010185558215611d06579182015b82811115611d05578251825591602001919060010190611cea565b5b509050611d139190611d17565b5090565b5b80821115611d30576000816000905550600101611d18565b5090565b6000604051905090565b600080fd5b600080fd5b60007fffffffff0000000000000000000000000000000000000000000000000000000082169050919050565b611d7d81611d48565b8114611d8857600080fd5b50565b600081359050611d9a81611d74565b92915050565b600060208284031215611db657611db5611d3e565b5b6000611dc484828501611d8b565b91505092915050565b60008115159050919050565b611de281611dcd565b82525050565b6000602082019050611dfd6000830184611dd9565b92915050565b600081519050919050565b600082825260208201905092915050565b60005b83811015611e3d578082015181840152602081019050611e22565b83811115611e4c576000848401525b50505050565b6000601f19601f8301169050919050565b6000611e6e82611e03565b611e788185611e0e565b9350611e88818560208601611e1f565b611e9181611e52565b840191505092915050565b60006020820190508181036000830152611eb68184611e63565b905092915050565b6000819050919050565b611ed181611ebe565b8114611edc57600080fd5b50565b600081359050611eee81611ec8565b92915050565b600060208284031215611f0a57611f09611d3e565b5b6000611f1884828501611edf565b91505092915050565b600073ffffffffffffffffffffffffffffffffffffffff82169050919050565b6000611f4c82611f21565b9050919050565b611f5c81611f41565b82525050565b6000602082019050611f776000830184611f53565b92915050565b611f8681611f41565b8114611f9157600080fd5b50565b600081359050611fa381611f7d565b92915050565b60008060408385031215611fc057611fbf611d3e565b5b6000611fce85828601611f94565b9250506020611fdf85828601611edf565b9150509250929050565b60008060006060848603121561200257612001611d3e565b5b600061201086828701611f94565b935050602061202186828701611f94565b925050604061203286828701611edf565b9150509250925092565b600080fd5b600080fd5b7f4e487b7100000000000000000000000000000000000000000000000000000000600052604160045260246000fd5b61207e82611e52565b810181811067ffffffffffffffff8211171561209d5761209c612046565b5b80604052505050565b60006120b0611d34565b90506120bc8282612075565b919050565b600067ffffffffffffffff8211156120dc576120db612046565b5b6120e582611e52565b9050602081019050919050565b82818337600083830152505050565b600061211461210f846120c1565b6120a6565b9050828152602081018484840111156121305761212f612041565b5b61213b8482856120f2565b509392505050565b600082601f8301126121585761215761203c565b5b8135612168848260208601612101565b91505092915050565b60006020828403121561218757612186611d3e565b5b600082013567ffffffffffffffff8111156121a5576121a4611d43565b5b6121b184828501612143565b91505092915050565b6000602082840312156121d0576121cf611d3e565b5b60006121de84828501611f94565b91505092915050565b6121f081611ebe565b82525050565b600060208201905061220b60008301846121e7565b92915050565b61221a81611dcd565b811461222557600080fd5b50565b60008135905061223781612211565b92915050565b6000806040838503121561225457612253611d3e565b5b600061226285828601611f94565b925050602061227385828601612228565b9150509250929050565b600067ffffffffffffffff82111561229857612297612046565b5b6122a182611e52565b9050602081019050919050565b60006122c16122bc8461227d565b6120a6565b9050828152602081018484840111156122dd576122dc612041565b5b6122e88482856120f2565b509392505050565b600082601f8301126123055761230461203c565b5b81356123158482602086016122ae565b91505092915050565b6000806000806080858703121561233857612337611d3e565b5b600061234687828801611f94565b945050602061235787828801611f94565b935050604061236887828801611edf565b925050606085013567ffffffffffffffff81111561238957612388611d43565b5b612395878288016122f0565b91505092959194509250565b600080604083850312156123b8576123b7611d3e565b5b60006123c685828601611f94565b92505060206123d785828601611f94565b9150509250929050565b7f4e487b7100000000000000000000000000000000000000000000000000000000600052602260045260246000fd5b6000600282049050600182168061242857607f821691505b6020821081141561243c5761243b6123e1565b5b50919050565b7f4552433732313a20617070726f76656420717565727920666f72206e6f6e657860008201527f697374656e7420746f6b656e0000000000000000000000000000000000000000602082015250565b600061249e602c83611e0e565b91506124a982612442565b604082019050919050565b600060208201905081810360008301526124cd81612491565b9050919050565b7f4552433732313a20617070726f76616c20746f2063757272656e74206f776e6560008201527f7200000000000000000000000000000000000000000000000000000000000000602082015250565b6000612530602183611e0e565b915061253b826124d4565b604082019050919050565b6000602082019050818103600083015261255f81612523565b9050919050565b7f4552433732313a20617070726f76652063616c6c6572206973206e6f74206f7760008201527f6e6572206e6f7220617070726f76656420666f7220616c6c0000000000000000602082015250565b60006125c2603883611e0e565b91506125cd82612566565b604082019050919050565b600060208201905081810360008301526125f1816125b5565b9050919050565b7f4552433732313a207472616e736665722063616c6c6572206973206e6f74206f60008201527f776e6572206e6f7220617070726f766564000000000000000000000000000000602082015250565b6000612654603183611e0e565b915061265f826125f8565b604082019050919050565b6000602082019050818103600083015261268381612647565b9050919050565b7f4f776e61626c653a2063616c6c6572206973206e6f7420746865206f776e6572600082015250565b60006126c0602083611e0e565b91506126cb8261268a565b602082019050919050565b600060208201905081810360008301526126ef816126b3565b9050919050565b7f4552433732313a206f776e657220717565727920666f72206e6f6e657869737460008201527f656e7420746f6b656e0000000000000000000000000000000000000000000000602082015250565b6000612752602983611e0e565b915061275d826126f6565b604082019050919050565b6000602082019050818103600083015261278181612745565b9050919050565b7f4552433732313a2062616c616e636520717565727920666f7220746865207a6560008201527f726f206164647265737300000000000000000000000000000000000000000000602082015250565b60006127e4602a83611e0e565b91506127ef82612788565b604082019050919050565b60006020820190508181036000830152612813816127d7565b9050919050565b7f45524337323155524953746f726167653a2055524920717565727920666f722060008201527f6e6f6e6578697374656e7420746f6b656e000000000000000000000000000000602082015250565b6000612876603183611e0e565b91506128818261281a565b604082019050919050565b600060208201905081810360008301526128a581612869565b9050919050565b600081905092915050565b60006128c282611e03565b6128cc81856128ac565b93506128dc818560208601611e1f565b80840191505092915050565b60006128f482856128b7565b915061290082846128b7565b91508190509392505050565b7f4f776e61626c653a206e6577206f776e657220697320746865207a65726f206160008201527f6464726573730000000000000000000000000000000000000000000000000000602082015250565b6000612968602683611e0e565b91506129738261290c565b604082019050919050565b600060208201905081810360008301526129978161295b565b9050919050565b7f4552433732313a206f70657261746f7220717565727920666f72206e6f6e657860008201527f697374656e7420746f6b656e0000000000000000000000000000000000000000602082015250565b60006129fa602c83611e0e565b9150612a058261299e565b604082019050919050565b60006020820190508181036000830152612a29816129ed565b9050919050565b7f4552433732313a207472616e736665722066726f6d20696e636f72726563742060008201527f6f776e6572000000000000000000000000000000000000000000000000000000602082015250565b6000612a8c602583611e0e565b9150612a9782612a30565b604082019050919050565b60006020820190508181036000830152612abb81612a7f565b9050919050565b7f4552433732313a207472616e7366657220746f20746865207a65726f2061646460008201527f7265737300000000000000000000000000000000000000000000000000000000602082015250565b6000612b1e602483611e0e565b9150612b2982612ac2565b604082019050919050565b60006020820190508181036000830152612b4d81612b11565b9050919050565b7f4e487b7100000000000000000000000000000000000000000000000000000000600052601160045260246000fd5b6000612b8e82611ebe565b9150612b9983611ebe565b925082821015612bac57612bab612b54565b5b828203905092915050565b6000612bc282611ebe565b9150612bcd83611ebe565b9250827fffffffffffffffffffffffffffffffffffffffffffffffffffffffffffffffff03821115612c0257612c01612b54565b5b828201905092915050565b7f4552433732313a206d696e7420746f20746865207a65726f2061646472657373600082015250565b6000612c43602083611e0e565b9150612c4e82612c0d565b602082019050919050565b60006020820190508181036000830152612c7281612c36565b9050919050565b7f4552433732313a20746f6b656e20616c7265616479206d696e74656400000000600082015250565b6000612caf601c83611e0e565b9150612cba82612c79565b602082019050919050565b60006020820190508181036000830152612cde81612ca2565b9050919050565b7f45524337323155524953746f726167653a2055524920736574206f66206e6f6e60008201527f6578697374656e7420746f6b656e000000000000000000000000000000000000602082015250565b6000612d41602e83611e0e565b9150612d4c82612ce5565b604082019050919050565b60006020820190508181036000830152612d7081612d34565b9050919050565b7f4552433732313a20617070726f766520746f2063616c6c657200000000000000600082015250565b6000612dad601983611e0e565b9150612db882612d77565b602082019050919050565b60006020820190508181036000830152612ddc81612da0565b9050919050565b7f4552433732313a207472616e7366657220746f206e6f6e20455243373231526560008201527f63656976657220696d706c656d656e7465720000000000000000000000000000602082015250565b6000612e3f603283611e0e565b9150612e4a82612de3565b604082019050919050565b60006020820190508181036000830152612e6e81612e32565b9050919050565b7f4552433732314d657461646174613a2055524920717565727920666f72206e6f60008201527f6e6578697374656e7420746f6b656e0000000000000000000000000000000000602082015250565b6000612ed1602f83611e0e565b9150612edc82612e75565b604082019050919050565b60006020820190508181036000830152612f0081612ec4565b9050919050565b600081519050919050565b600082825260208201905092915050565b6000612f2e82612f07565b612f388185612f12565b9350612f48818560208601611e1f565b612f5181611e52565b840191505092915050565b6000608082019050612f716000830187611f53565b612f7e6020830186611f53565b612f8b60408301856121e7565b8181036060830152612f9d8184612f23565b905095945050505050565b600081519050612fb781611d74565b92915050565b600060208284031215612fd357612fd2611d3e565b5b6000612fe184828501612fa8565b91505092915050565b6000612ff582611ebe565b91507fffffffffffffffffffffffffffffffffffffffffffffffffffffffffffffffff82141561302857613027612b54565b5b600182019050919050565b7f4e487b7100000000000000000000000000000000000000000000000000000000600052601260045260246000fd5b600061306d82611ebe565b915061307883611ebe565b92508261308857613087613033565b5b828204905092915050565b600061309e82611ebe565b91506130a983611ebe565b9250826130b9576130b8613033565b5b828206905092915050565b7f4e487b7100000000000000000000000000000000000000000000000000000000600052603260045260246000fdfea26469706673582212209e354b9af450b2d51954fcfa6cb717d1f4d04f6425a7385a3a6849e8206136a664736f6c634300080b0033",
  "immutableReferences": {},
  "source": "// SPDX-License-Identifier: MIT OR Apache-2.0\r\npragma solidity ^0.8.5;\r\n\r\nimport \"@openzeppelin/contracts/token/ERC721/ERC721.sol\";\r\nimport \"@openzeppelin/contracts/token/ERC721/extensions/ERC721URIStorage.sol\";\r\nimport \"@openzeppelin/contracts/utils/Counters.sol\";\r\nimport \"@openzeppelin/contracts/utils/Strings.sol\";\r\nimport \"@openzeppelin/contracts/access/Ownable.sol\";\r\n\r\n/**\r\n * This contract will be used to create a collection for the users on our Market.\r\n * NOTE: Unlike the MyNFT contract, only owner (collection creator) can mint a `Custom Token`.\r\n */\r\ncontract CustomNFT is ERC721URIStorage, Ownable {\r\n    using Counters for Counters.Counter;\r\n    Counters.Counter private _tokenIds;\r\n\r\n    constructor(string memory name, string memory symbol) ERC721(name, symbol) {\r\n      _tokenIds.increment(); // start tokenIds from 1\r\n    }\r\n\r\n    /**\r\n     * @param _tokenURI is the metadata's IPFS uri.\r\n     */\r\n    function mintToken(string memory _tokenURI) public payable onlyOwner {\r\n      uint256 tokenId = _tokenIds.current();\r\n      _tokenIds.increment();\r\n      _mint(msg.sender, tokenId);\r\n      _setTokenURI(tokenId, _tokenURI);\r\n    }\r\n}\r\n",
  "sourcePath": "D:\\Projeler\\NFT Marketplace contracts\\contracts\\CustomNFT.sol",
  "compiler": {
    "name": "solc",
    "version": "0.8.11+commit.d7f03943.Emscripten.clang"
  },
  "schemaVersion": "3.4.6",
  "updatedAt": "2022-07-23T06:14:01.385Z",
  "networkType": "ethereum",
  "devdoc": {
    "kind": "dev",
    "methods": {
      "approve(address,uint256)": {
        "details": "See {IERC721-approve}."
      },
      "balanceOf(address)": {
        "details": "See {IERC721-balanceOf}."
      },
      "getApproved(uint256)": {
        "details": "See {IERC721-getApproved}."
      },
      "isApprovedForAll(address,address)": {
        "details": "See {IERC721-isApprovedForAll}."
      },
      "mintToken(string)": {
        "params": {
          "_tokenURI": "is the metadata's IPFS uri."
        }
      },
      "name()": {
        "details": "See {IERC721Metadata-name}."
      },
      "owner()": {
        "details": "Returns the address of the current owner."
      },
      "ownerOf(uint256)": {
        "details": "See {IERC721-ownerOf}."
      },
      "renounceOwnership()": {
        "details": "Leaves the contract without owner. It will not be possible to call `onlyOwner` functions anymore. Can only be called by the current owner. NOTE: Renouncing ownership will leave the contract without an owner, thereby removing any functionality that is only available to the owner."
      },
      "safeTransferFrom(address,address,uint256)": {
        "details": "See {IERC721-safeTransferFrom}."
      },
      "safeTransferFrom(address,address,uint256,bytes)": {
        "details": "See {IERC721-safeTransferFrom}."
      },
      "setApprovalForAll(address,bool)": {
        "details": "See {IERC721-setApprovalForAll}."
      },
      "supportsInterface(bytes4)": {
        "details": "See {IERC165-supportsInterface}."
      },
      "symbol()": {
        "details": "See {IERC721Metadata-symbol}."
      },
      "tokenURI(uint256)": {
        "details": "See {IERC721Metadata-tokenURI}."
      },
      "transferFrom(address,address,uint256)": {
        "details": "See {IERC721-transferFrom}."
      },
      "transferOwnership(address)": {
        "details": "Transfers ownership of the contract to a new account (`newOwner`). Can only be called by the current owner."
      }
    },
    "version": 1
  },
  "userdoc": {
    "kind": "user",
    "methods": {},
    "notice": "This contract will be used to create a collection for the users on our Market. NOTE: Unlike the MyNFT contract, only owner (collection creator) can mint a `Custom Token`.",
    "version": 1
  }
}