{
  "contractName": "Market",
  "abi": [
    {
      "inputs": [],
      "stateMutability": "payable",
      "type": "constructor",
      "payable": true
    },
    {
      "anonymous": false,
      "inputs": [
        {
          "indexed": true,
          "internalType": "uint256",
          "name": "bidId",
          "type": "uint256"
        },
        {
          "indexed": true,
          "internalType": "address",
          "name": "bidder",
          "type": "address"
        },
        {
          "indexed": true,
          "internalType": "address",
          "name": "nftContractAddress",
          "type": "address"
        },
        {
          "indexed": false,
          "internalType": "uint256",
          "name": "tokenId",
          "type": "uint256"
        },
        {
          "indexed": false,
          "internalType": "uint256",
          "name": "price",
          "type": "uint256"
        }
      ],
      "name": "BidCancelled",
      "type": "event"
    },
    {
      "anonymous": false,
      "inputs": [
        {
          "indexed": false,
          "internalType": "uint256",
          "name": "bidId",
          "type": "uint256"
        },
        {
          "indexed": true,
          "internalType": "address",
          "name": "bidder",
          "type": "address"
        },
        {
          "indexed": true,
          "internalType": "address",
          "name": "nftContractAddress",
          "type": "address"
        },
        {
          "indexed": true,
          "internalType": "uint256",
          "name": "tokenId",
          "type": "uint256"
        },
        {
          "indexed": false,
          "internalType": "uint256",
          "name": "price",
          "type": "uint256"
        }
      ],
      "name": "BidPlaced",
      "type": "event"
    },
    {
      "anonymous": false,
      "inputs": [
        {
          "indexed": true,
          "internalType": "uint256",
          "name": "listingId",
          "type": "uint256"
        },
        {
          "indexed": true,
          "internalType": "address",
          "name": "owner",
          "type": "address"
        },
        {
          "indexed": true,
          "internalType": "address",
          "name": "nftContractAddress",
          "type": "address"
        },
        {
          "indexed": false,
          "internalType": "uint256",
          "name": "tokenId",
          "type": "uint256"
        }
      ],
      "name": "ListingCancelled",
      "type": "event"
    },
    {
      "anonymous": false,
      "inputs": [
        {
          "indexed": false,
          "internalType": "uint256",
          "name": "listingId",
          "type": "uint256"
        },
        {
          "indexed": true,
          "internalType": "address",
          "name": "owner",
          "type": "address"
        },
        {
          "indexed": true,
          "internalType": "address",
          "name": "nftContractAddress",
          "type": "address"
        },
        {
          "indexed": true,
          "internalType": "uint256",
          "name": "tokenId",
          "type": "uint256"
        },
        {
          "indexed": false,
          "internalType": "uint256",
          "name": "price",
          "type": "uint256"
        }
      ],
      "name": "ListingCreated",
      "type": "event"
    },
    {
      "anonymous": false,
      "inputs": [
        {
          "indexed": true,
          "internalType": "address",
          "name": "previousOwner",
          "type": "address"
        },
        {
          "indexed": true,
          "internalType": "address",
          "name": "newOwner",
          "type": "address"
        }
      ],
      "name": "OwnershipTransferred",
      "type": "event"
    },
    {
      "anonymous": false,
      "inputs": [
        {
          "indexed": true,
          "internalType": "uint256",
          "name": "listingId",
          "type": "uint256"
        },
        {
          "indexed": false,
          "internalType": "address",
          "name": "seller",
          "type": "address"
        },
        {
          "indexed": false,
          "internalType": "address",
          "name": "buyer",
          "type": "address"
        },
        {
          "indexed": true,
          "internalType": "address",
          "name": "nftContractAddress",
          "type": "address"
        },
        {
          "indexed": true,
          "internalType": "uint256",
          "name": "tokenId",
          "type": "uint256"
        },
        {
          "indexed": false,
          "internalType": "uint256",
          "name": "price",
          "type": "uint256"
        }
      ],
      "name": "Sale",
      "type": "event"
    },
    {
      "inputs": [],
      "name": "LISTING_PRICE",
      "outputs": [
        {
          "internalType": "uint256",
          "name": "",
          "type": "uint256"
        }
      ],
      "stateMutability": "view",
      "type": "function",
      "constant": true
    },
    {
      "inputs": [
        {
          "internalType": "uint256",
          "name": "",
          "type": "uint256"
        }
      ],
      "name": "marketListings",
      "outputs": [
        {
          "internalType": "uint256",
          "name": "listingId",
          "type": "uint256"
        },
        {
          "internalType": "address",
          "name": "contractAddress",
          "type": "address"
        },
        {
          "internalType": "uint256",
          "name": "tokenId",
          "type": "uint256"
        },
        {
          "internalType": "address",
          "name": "ownerAddress",
          "type": "address"
        },
        {
          "internalType": "uint256",
          "name": "price",
          "type": "uint256"
        },
        {
          "internalType": "bool",
          "name": "isSold",
          "type": "bool"
        },
        {
          "internalType": "bool",
          "name": "isCancelled",
          "type": "bool"
        }
      ],
      "stateMutability": "view",
      "type": "function",
      "constant": true
    },
    {
      "inputs": [
        {
          "internalType": "uint256",
          "name": "",
          "type": "uint256"
        }
      ],
      "name": "offers",
      "outputs": [
        {
          "internalType": "uint256",
          "name": "id",
          "type": "uint256"
        },
        {
          "internalType": "address",
          "name": "userAddress",
          "type": "address"
        },
        {
          "internalType": "uint256",
          "name": "price",
          "type": "uint256"
        },
        {
          "internalType": "address",
          "name": "contractAddress",
          "type": "address"
        },
        {
          "internalType": "uint256",
          "name": "tokenId",
          "type": "uint256"
        },
        {
          "internalType": "bool",
          "name": "isAccepted",
          "type": "bool"
        },
        {
          "internalType": "bool",
          "name": "isCancelled",
          "type": "bool"
        }
      ],
      "stateMutability": "view",
      "type": "function",
      "constant": true
    },
    {
      "inputs": [],
      "name": "owner",
      "outputs": [
        {
          "internalType": "address",
          "name": "",
          "type": "address"
        }
      ],
      "stateMutability": "view",
      "type": "function",
      "constant": true
    },
    {
      "inputs": [],
      "name": "renounceOwnership",
      "outputs": [],
      "stateMutability": "nonpayable",
      "type": "function"
    },
    {
      "inputs": [
        {
          "internalType": "address",
          "name": "newOwner",
          "type": "address"
        }
      ],
      "name": "transferOwnership",
      "outputs": [],
      "stateMutability": "nonpayable",
      "type": "function"
    },
    {
      "inputs": [
        {
          "internalType": "address",
          "name": "_contractAddress",
          "type": "address"
        },
        {
          "internalType": "uint256",
          "name": "_tokenId",
          "type": "uint256"
        },
        {
          "internalType": "uint256",
          "name": "_price",
          "type": "uint256"
        }
      ],
      "name": "putOnSale",
      "outputs": [],
      "stateMutability": "payable",
      "type": "function",
      "payable": true
    },
    {
      "inputs": [
        {
          "internalType": "uint256",
          "name": "listingId",
          "type": "uint256"
        }
      ],
      "name": "cancelSale",
      "outputs": [],
      "stateMutability": "nonpayable",
      "type": "function"
    },
    {
      "inputs": [
        {
          "internalType": "uint256",
          "name": "_listingId",
          "type": "uint256"
        }
      ],
      "name": "buyNFT",
      "outputs": [],
      "stateMutability": "payable",
      "type": "function",
      "payable": true
    }
  ],
  "bytecode": "0x608060405264174876e800600755600160008190555062000047620000326200008d640100000000026401000000009004565b62000095640100000000026401000000009004565b6200006760026200015b6401000000000262000ea2176401000000009004565b6200008760036200015b6401000000000262000ea2176401000000009004565b62000171565b600033905090565b6000600160009054906101000a900473ffffffffffffffffffffffffffffffffffffffff16905081600160006101000a81548173ffffffffffffffffffffffffffffffffffffffff021916908373ffffffffffffffffffffffffffffffffffffffff1602179055508173ffffffffffffffffffffffffffffffffffffffff168173ffffffffffffffffffffffffffffffffffffffff167f8be0079c531659141344cd1fd0a4f28419497f9722a3daafe3b4186f6b6457e060405160405180910390a35050565b6001816000016000828254019250508190555050565b61174f80620001816000396000f3fe6080604052600436106100b3576000357c01000000000000000000000000000000000000000000000000000000009004806373956761116100865780638da5cb5b1161006b5780638da5cb5b146101b8578063bd94b005146101e3578063f2fde38b1461020c576100b3565b8063739567611461014a5780638a72ea6a14610175576100b3565b806330788952146100b85780633ac0374a146100fb57806351ed828814610117578063715018a614610133575b600080fd5b3480156100c457600080fd5b506100df60048036038101906100da9190610fcf565b610235565b6040516100f29796959493929190611067565b60405180910390f35b61011560048036038101906101109190611102565b6102d1565b005b610131600480360381019061012c9190610fcf565b610602565b005b34801561013f57600080fd5b5061014861097f565b005b34801561015657600080fd5b5061015f610a07565b60405161016c9190611155565b60405180910390f35b34801561018157600080fd5b5061019c60048036038101906101979190610fcf565b610a0d565b6040516101af9796959493929190611067565b60405180910390f35b3480156101c457600080fd5b506101cd610aa9565b6040516101da9190611170565b60405180910390f35b3480156101ef57600080fd5b5061020a60048036038101906102059190610fcf565b610ad3565b005b34801561021857600080fd5b50610233600480360381019061022e919061118b565b610daa565b005b60056020528060005260406000206000915090508060000154908060010160009054906101000a900473ffffffffffffffffffffffffffffffffffffffff16908060020154908060030160009054906101000a900473ffffffffffffffffffffffffffffffffffffffff16908060040154908060050160009054906101000a900460ff16908060050160019054906101000a900460ff16905087565b3273ffffffffffffffffffffffffffffffffffffffff163373ffffffffffffffffffffffffffffffffffffffff161461033f576040517f08c379a000000000000000000000000000000000000000000000000000000000815260040161033690611215565b60405180910390fd5b600754341015610384576040517f08c379a000000000000000000000000000000000000000000000000000000000815260040161037b90611281565b60405180910390fd5b60008390508073ffffffffffffffffffffffffffffffffffffffff166323b872dd3330866040518463ffffffff167c01000000000000000000000000000000000000000000000000000000000281526004016103e2939291906112a1565b600060405180830381600087803b1580156103fc57600080fd5b505af1158015610410573d6000803e3d6000fd5b5050505060006104206002610eb8565b90506040518060e001604052808281526020018673ffffffffffffffffffffffffffffffffffffffff1681526020018581526020013373ffffffffffffffffffffffffffffffffffffffff16815260200184815260200160001515815260200160001515815250600560008381526020019081526020016000206000820151816000015560208201518160010160006101000a81548173ffffffffffffffffffffffffffffffffffffffff021916908373ffffffffffffffffffffffffffffffffffffffff1602179055506040820151816002015560608201518160030160006101000a81548173ffffffffffffffffffffffffffffffffffffffff021916908373ffffffffffffffffffffffffffffffffffffffff1602179055506080820151816004015560a08201518160050160006101000a81548160ff02191690831515021790555060c08201518160050160016101000a81548160ff0219169083151502179055509050506105936002610ea2565b838573ffffffffffffffffffffffffffffffffffffffff163373ffffffffffffffffffffffffffffffffffffffff167f508c75a3cb42c068e54cf9e0b738921b4e2375725c5965ef4a110475606fc05a84876040516105f39291906112d8565b60405180910390a45050505050565b6000600560008381526020019081526020016000209050600073ffffffffffffffffffffffffffffffffffffffff168160010160009054906101000a900473ffffffffffffffffffffffffffffffffffffffff1673ffffffffffffffffffffffffffffffffffffffff1614156106ad576040517f08c379a00000000000000000000000000000000000000000000000000000000081526004016106a49061134d565b60405180910390fd5b8060050160009054906101000a900460ff16156106ff576040517f08c379a00000000000000000000000000000000000000000000000000000000081526004016106f6906113b9565b60405180910390fd5b8060050160019054906101000a900460ff1615610751576040517f08c379a000000000000000000000000000000000000000000000000000000000815260040161074890611425565b60405180910390fd5b8060040154341015610798576040517f08c379a000000000000000000000000000000000000000000000000000000000815260040161078f90611491565b60405180910390fd5b60018160050160006101000a81548160ff0219169083151502179055508060030160009054906101000a900473ffffffffffffffffffffffffffffffffffffffff1673ffffffffffffffffffffffffffffffffffffffff166108fc82600401549081150290604051600060405180830381858888f19350505050158015610823573d6000803e3d6000fd5b508060010160009054906101000a900473ffffffffffffffffffffffffffffffffffffffff1673ffffffffffffffffffffffffffffffffffffffff166323b872dd303384600201546040518463ffffffff167c01000000000000000000000000000000000000000000000000000000000281526004016108a5939291906112a1565b600060405180830381600087803b1580156108bf57600080fd5b505af11580156108d3573d6000803e3d6000fd5b5050505080600201548160010160009054906101000a900473ffffffffffffffffffffffffffffffffffffffff1673ffffffffffffffffffffffffffffffffffffffff16837f355160d42af1f08dc00c73394c3c451d2305e914e7fc8bf14d880df0da16cf628460030160009054906101000a900473ffffffffffffffffffffffffffffffffffffffff16338660040154604051610973939291906112a1565b60405180910390a45050565b610987610ec6565b73ffffffffffffffffffffffffffffffffffffffff166109a5610aa9565b73ffffffffffffffffffffffffffffffffffffffff16146109fb576040517f08c379a00000000000000000000000000000000000000000000000000000000081526004016109f2906114fd565b60405180910390fd5b610a056000610ece565b565b60075481565b60066020528060005260406000206000915090508060000154908060010160009054906101000a900473ffffffffffffffffffffffffffffffffffffffff16908060020154908060030160009054906101000a900473ffffffffffffffffffffffffffffffffffffffff16908060040154908060050160009054906101000a900460ff16908060050160019054906101000a900460ff16905087565b6000600160009054906101000a900473ffffffffffffffffffffffffffffffffffffffff16905090565b60006005600083815260200190815260200160002090508060030160009054906101000a900473ffffffffffffffffffffffffffffffffffffffff1673ffffffffffffffffffffffffffffffffffffffff163373ffffffffffffffffffffffffffffffffffffffff1614610b7c576040517f08c379a0000000000000000000000000000000000000000000000000000000008152600401610b739061158f565b60405180910390fd5b8060050160009054906101000a900460ff1615610bce576040517f08c379a0000000000000000000000000000000000000000000000000000000008152600401610bc5906115fb565b60405180910390fd5b8060050160019054906101000a900460ff1615610c20576040517f08c379a0000000000000000000000000000000000000000000000000000000008152600401610c1790611667565b60405180910390fd5b60018160050160016101000a81548160ff0219169083151502179055508060010160009054906101000a900473ffffffffffffffffffffffffffffffffffffffff1673ffffffffffffffffffffffffffffffffffffffff166323b872dd303384600201546040518463ffffffff167c0100000000000000000000000000000000000000000000000000000000028152600401610cbe939291906112a1565b600060405180830381600087803b158015610cd857600080fd5b505af1158015610cec573d6000803e3d6000fd5b505050508060010160009054906101000a900473ffffffffffffffffffffffffffffffffffffffff1673ffffffffffffffffffffffffffffffffffffffff168160030160009054906101000a900473ffffffffffffffffffffffffffffffffffffffff1673ffffffffffffffffffffffffffffffffffffffff1682600001547f61b65dee2812bcf80c52c603ed6479cde390ec97008da9021789097ffe9b9de78460020154604051610d9e9190611155565b60405180910390a45050565b610db2610ec6565b73ffffffffffffffffffffffffffffffffffffffff16610dd0610aa9565b73ffffffffffffffffffffffffffffffffffffffff1614610e26576040517f08c379a0000000000000000000000000000000000000000000000000000000008152600401610e1d906114fd565b60405180910390fd5b600073ffffffffffffffffffffffffffffffffffffffff168173ffffffffffffffffffffffffffffffffffffffff161415610e96576040517f08c379a0000000000000000000000000000000000000000000000000000000008152600401610e8d906116f9565b60405180910390fd5b610e9f81610ece565b50565b6001816000016000828254019250508190555050565b600081600001549050919050565b600033905090565b6000600160009054906101000a900473ffffffffffffffffffffffffffffffffffffffff16905081600160006101000a81548173ffffffffffffffffffffffffffffffffffffffff021916908373ffffffffffffffffffffffffffffffffffffffff1602179055508173ffffffffffffffffffffffffffffffffffffffff168173ffffffffffffffffffffffffffffffffffffffff167f8be0079c531659141344cd1fd0a4f28419497f9722a3daafe3b4186f6b6457e060405160405180910390a35050565b600080fd5b6000819050919050565b610fac81610f99565b8114610fb757600080fd5b50565b600081359050610fc981610fa3565b92915050565b600060208284031215610fe557610fe4610f94565b5b6000610ff384828501610fba565b91505092915050565b61100581610f99565b82525050565b600073ffffffffffffffffffffffffffffffffffffffff82169050919050565b60006110368261100b565b9050919050565b6110468161102b565b82525050565b60008115159050919050565b6110618161104c565b82525050565b600060e08201905061107c600083018a610ffc565b611089602083018961103d565b6110966040830188610ffc565b6110a3606083018761103d565b6110b06080830186610ffc565b6110bd60a0830185611058565b6110ca60c0830184611058565b98975050505050505050565b6110df8161102b565b81146110ea57600080fd5b50565b6000813590506110fc816110d6565b92915050565b60008060006060848603121561111b5761111a610f94565b5b6000611129868287016110ed565b935050602061113a86828701610fba565b925050604061114b86828701610fba565b9150509250925092565b600060208201905061116a6000830184610ffc565b92915050565b6000602082019050611185600083018461103d565b92915050565b6000602082840312156111a1576111a0610f94565b5b60006111af848285016110ed565b91505092915050565b600082825260208201905092915050565b7f4e6f7420616c6c6f776564206f726967696e0000000000000000000000000000600082015250565b60006111ff6012836111b8565b915061120a826111c9565b602082019050919050565b6000602082019050818103600083015261122e816111f2565b9050919050565b7f4c697374696e6720666565206d7573742062652073656e740000000000000000600082015250565b600061126b6018836111b8565b915061127682611235565b602082019050919050565b6000602082019050818103600083015261129a8161125e565b9050919050565b60006060820190506112b6600083018661103d565b6112c3602083018561103d565b6112d06040830184610ffc565b949350505050565b60006040820190506112ed6000830185610ffc565b6112fa6020830184610ffc565b9392505050565b7f4d61726b65743a204c697374696e67206e6f7420666f756e6400000000000000600082015250565b60006113376019836111b8565b915061134282611301565b602082019050919050565b600060208201905081810360008301526113668161132a565b9050919050565b7f4d61726b65743a204974656d20697320616c726561647920736f6c6400000000600082015250565b60006113a3601c836111b8565b91506113ae8261136d565b602082019050919050565b600060208201905081810360008301526113d281611396565b9050919050565b7f4d61726b65743a204c697374696e672069732063616e63656c6c656400000000600082015250565b600061140f601c836111b8565b915061141a826113d9565b602082019050919050565b6000602082019050818103600083015261143e81611402565b9050919050565b7f4d61726b65743a2053656e6420746865206c697374696e672070726963650000600082015250565b600061147b601e836111b8565b915061148682611445565b602082019050919050565b600060208201905081810360008301526114aa8161146e565b9050919050565b7f4f776e61626c653a2063616c6c6572206973206e6f7420746865206f776e6572600082015250565b60006114e76020836111b8565b91506114f2826114b1565b602082019050919050565b60006020820190508181036000830152611516816114da565b9050919050565b7f4f6e6c7920746f6b656e206f776e65722063616e20646f20746869732061637460008201527f696f6e0000000000000000000000000000000000000000000000000000000000602082015250565b60006115796023836111b8565b91506115848261151d565b604082019050919050565b600060208201905081810360008301526115a88161156c565b9050919050565b7f4974656d20697320616c726561647920736f6c64000000000000000000000000600082015250565b60006115e56014836111b8565b91506115f0826115af565b602082019050919050565b60006020820190508181036000830152611614816115d8565b9050919050565b7f4c697374696e6720616c72656164792063616e63656c6c656400000000000000600082015250565b60006116516019836111b8565b915061165c8261161b565b602082019050919050565b6000602082019050818103600083015261168081611644565b9050919050565b7f4f776e61626c653a206e6577206f776e657220697320746865207a65726f206160008201527f6464726573730000000000000000000000000000000000000000000000000000602082015250565b60006116e36026836111b8565b91506116ee82611687565b604082019050919050565b60006020820190508181036000830152611712816116d6565b905091905056fea2646970667358221220c4cb5a2ba900fc3f255ad4bc1b049cc5f4a19440f21ec86781ae7e8c005fecbc64736f6c634300080b0033",
  "immutableReferences": {},
  "source": "// SPDX-License-Identifier: MIT\r\npragma solidity ^0.8.4;\r\n\r\nimport \"@openzeppelin/contracts/token/ERC20/IERC20.sol\";\r\nimport \"@openzeppelin/contracts/token/ERC20/ERC20.sol\";\r\nimport \"@openzeppelin/contracts/token/ERC721/ERC721.sol\";\r\nimport \"@openzeppelin/contracts/token/ERC721/IERC721.sol\";\r\nimport \"@openzeppelin/contracts/utils/Counters.sol\";\r\nimport \"@openzeppelin/contracts/utils/Strings.sol\";\r\nimport \"@openzeppelin/contracts/security/ReentrancyGuard.sol\";\r\nimport \"@openzeppelin/contracts/access/Ownable.sol\";\r\n\r\ncontract Market is ReentrancyGuard, Ownable {\r\n    using Counters for Counters.Counter;\r\n    Counters.Counter private _listingCounts;\r\n    Counters.Counter private _offerCounts;\r\n    Counters.Counter private _saleCounts;\r\n\r\n    struct Offer {\r\n        uint256 id;\r\n        address userAddress;\r\n        uint256 price;\r\n        address contractAddress;\r\n        uint256 tokenId;\r\n        bool isAccepted;\r\n        bool isCancelled;\r\n    }\r\n\r\n    struct Listing {\r\n        uint256 listingId;\r\n        address contractAddress;\r\n        uint256 tokenId;\r\n        address ownerAddress;\r\n        uint256 price;\r\n        bool isSold;\r\n        bool isCancelled;\r\n    }\r\n\r\n    mapping(uint256 => Listing) public marketListings;\r\n    mapping(uint256 => Offer) public offers;\r\n\r\n    uint256 public LISTING_PRICE = 0.0000001 ether;\r\n\r\n    event ListingCreated(\r\n        uint256 listingId,\r\n        address indexed owner,\r\n        address indexed nftContractAddress,\r\n        uint256 indexed tokenId,\r\n        uint256 price\r\n    );\r\n\r\n    event ListingCancelled(\r\n        uint256 indexed listingId,\r\n        address indexed owner,\r\n        address indexed nftContractAddress,\r\n        uint256 tokenId\r\n    );\r\n\r\n    event BidPlaced(\r\n        uint256 bidId,\r\n        address indexed bidder,\r\n        address indexed nftContractAddress,\r\n        uint256 indexed tokenId,\r\n        uint256 price\r\n    );\r\n\r\n    event BidCancelled(\r\n        uint256 indexed bidId,\r\n        address indexed bidder,\r\n        address indexed nftContractAddress,\r\n        uint256 tokenId,\r\n        uint256 price\r\n    );\r\n\r\n    event Sale(\r\n        uint256 indexed listingId,\r\n        address seller,\r\n        address buyer,\r\n        address indexed nftContractAddress,\r\n        uint256 indexed tokenId,\r\n        uint256 price\r\n    );\r\n\r\n    constructor() payable {\r\n        _listingCounts.increment(); // start from 1\r\n        _offerCounts.increment(); // start from 1\r\n    }\r\n\r\n    modifier onlyAccounts() {\r\n        require(msg.sender == tx.origin, \"Not allowed origin\");\r\n        _;\r\n    }\r\n\r\n    function putOnSale(\r\n        address _contractAddress,\r\n        uint256 _tokenId,\r\n        uint256 _price\r\n    ) public payable onlyAccounts {\r\n        require(msg.value >= LISTING_PRICE, \"Listing fee must be sent\");\r\n\r\n        ERC721 nft = ERC721(_contractAddress);\r\n        nft.transferFrom(msg.sender, address(this), _tokenId);\r\n\r\n        uint256 itemId = _listingCounts.current();\r\n        marketListings[itemId] = Listing(\r\n            itemId,\r\n            _contractAddress,\r\n            _tokenId,\r\n            msg.sender,\r\n            _price,\r\n            false,\r\n            false\r\n        );\r\n\r\n        _listingCounts.increment();\r\n\r\n        emit ListingCreated(\r\n            itemId,\r\n            msg.sender,\r\n            _contractAddress,\r\n            _tokenId,\r\n            _price\r\n        );\r\n    }\r\n\r\n    function cancelSale(uint256 listingId) public {\r\n        Listing storage listing = marketListings[listingId];\r\n\r\n        require(\r\n            msg.sender == listing.ownerAddress,\r\n            \"Only token owner can do this action\"\r\n        );\r\n        require(!listing.isSold, \"Item is already sold\");\r\n        require(!listing.isCancelled, \"Listing already cancelled\");\r\n\r\n        listing.isCancelled = true;\r\n\r\n        IERC721(address(listing.contractAddress)).transferFrom(\r\n            address(this),\r\n            msg.sender,\r\n            listing.tokenId\r\n        );\r\n\r\n        emit ListingCancelled(\r\n            listing.listingId,\r\n            listing.ownerAddress,\r\n            listing.contractAddress,\r\n            listing.tokenId\r\n        );\r\n    }\r\n\r\n    function buyNFT(uint256 _listingId) public payable {\r\n        Listing storage listing = marketListings[_listingId];\r\n\r\n        require(\r\n            listing.contractAddress != address(0),\r\n            \"Market: Listing not found\"\r\n        );\r\n        require(!listing.isSold, \"Market: Item is already sold\");\r\n        require(!listing.isCancelled, \"Market: Listing is cancelled\");\r\n        require(msg.value >= listing.price, \"Market: Send the listing price\");\r\n\r\n        listing.isSold = true;\r\n\r\n        payable(address(listing.ownerAddress)).transfer(listing.price);\r\n        ERC721(listing.contractAddress).transferFrom(\r\n            address(this),\r\n            msg.sender,\r\n            listing.tokenId\r\n        );\r\n\r\n        emit Sale(\r\n            _listingId,\r\n            listing.ownerAddress,\r\n            msg.sender,\r\n            listing.contractAddress,\r\n            listing.tokenId,\r\n            listing.price\r\n        );\r\n    }\r\n}\r\n",
  "sourcePath": "D:\\Projeler\\NFT Marketplace contracts\\contracts\\Market.sol",
  "compiler": {
    "name": "solc",
    "version": "0.8.11+commit.d7f03943.Emscripten.clang"
  },
  "schemaVersion": "3.4.6",
  "updatedAt": "2022-07-23T06:13:58.880Z",
  "networkType": "ethereum",
  "devdoc": {
    "kind": "dev",
    "methods": {
      "owner()": {
        "details": "Returns the address of the current owner."
      },
      "renounceOwnership()": {
        "details": "Leaves the contract without owner. It will not be possible to call `onlyOwner` functions anymore. Can only be called by the current owner. NOTE: Renouncing ownership will leave the contract without an owner, thereby removing any functionality that is only available to the owner."
      },
      "transferOwnership(address)": {
        "details": "Transfers ownership of the contract to a new account (`newOwner`). Can only be called by the current owner."
      }
    },
    "version": 1
  },
  "userdoc": {
    "kind": "user",
    "methods": {},
    "version": 1
  }
}